{"abi":[{"type":"constructor","inputs":[{"name":"tokenAddress","type":"address","internalType":"address"}],"stateMutability":"nonpayable"},{"type":"function","name":"acceptBet","inputs":[{"name":"betId","type":"uint256","internalType":"uint256"}],"outputs":[],"stateMutability":"nonpayable"},{"type":"function","name":"betCounter","inputs":[],"outputs":[{"name":"","type":"uint256","internalType":"uint256"}],"stateMutability":"view"},{"type":"function","name":"bets","inputs":[{"name":"","type":"uint256","internalType":"uint256"}],"outputs":[{"name":"player1","type":"address","internalType":"address"},{"name":"player2","type":"address","internalType":"address"},{"name":"amount","type":"uint256","internalType":"uint256"},{"name":"accepted","type":"bool","internalType":"bool"},{"name":"active","type":"bool","internalType":"bool"},{"name":"winner","type":"address","internalType":"address"}],"stateMutability":"view"},{"type":"function","name":"createBet","inputs":[{"name":"opponent","type":"address","internalType":"address"},{"name":"amount","type":"uint256","internalType":"uint256"}],"outputs":[{"name":"","type":"uint256","internalType":"uint256"}],"stateMutability":"nonpayable"},{"type":"function","name":"owner","inputs":[],"outputs":[{"name":"","type":"address","internalType":"address"}],"stateMutability":"view"},{"type":"function","name":"renounceOwnership","inputs":[],"outputs":[],"stateMutability":"nonpayable"},{"type":"function","name":"resolveBet","inputs":[{"name":"betId","type":"uint256","internalType":"uint256"},{"name":"winner","type":"address","internalType":"address"}],"outputs":[],"stateMutability":"nonpayable"},{"type":"function","name":"token","inputs":[],"outputs":[{"name":"","type":"address","internalType":"contract IERC20"}],"stateMutability":"view"},{"type":"function","name":"transferOwnership","inputs":[{"name":"newOwner","type":"address","internalType":"address"}],"outputs":[],"stateMutability":"nonpayable"},{"type":"event","name":"BetAccepted","inputs":[{"name":"betId","type":"uint256","indexed":false,"internalType":"uint256"},{"name":"player2","type":"address","indexed":false,"internalType":"address"}],"anonymous":false},{"type":"event","name":"BetCreated","inputs":[{"name":"betId","type":"uint256","indexed":false,"internalType":"uint256"},{"name":"player1","type":"address","indexed":false,"internalType":"address"},{"name":"player2","type":"address","indexed":false,"internalType":"address"},{"name":"amount","type":"uint256","indexed":false,"internalType":"uint256"}],"anonymous":false},{"type":"event","name":"BetResolved","inputs":[{"name":"betId","type":"uint256","indexed":false,"internalType":"uint256"},{"name":"winner","type":"address","indexed":false,"internalType":"address"},{"name":"payout","type":"uint256","indexed":false,"internalType":"uint256"}],"anonymous":false},{"type":"event","name":"OwnershipTransferred","inputs":[{"name":"previousOwner","type":"address","indexed":true,"internalType":"address"},{"name":"newOwner","type":"address","indexed":true,"internalType":"address"}],"anonymous":false},{"type":"error","name":"OwnableInvalidOwner","inputs":[{"name":"owner","type":"address","internalType":"address"}]},{"type":"error","name":"OwnableUnauthorizedAccount","inputs":[{"name":"account","type":"address","internalType":"address"}]}],"bytecode":{"object":"0x60a060405234801561000f575f5ffd5b5060405161185838038061185883398181016040528101906100319190610279565b335f73ffffffffffffffffffffffffffffffffffffffff168173ffffffffffffffffffffffffffffffffffffffff16036100a2575f6040517f1e4fbdf700000000000000000000000000000000000000000000000000000000815260040161009991906102b3565b60405180910390fd5b6100b18161015a60201b60201c565b505f73ffffffffffffffffffffffffffffffffffffffff168173ffffffffffffffffffffffffffffffffffffffff1603610120576040517f08c379a000000000000000000000000000000000000000000000000000000000815260040161011790610326565b60405180910390fd5b8073ffffffffffffffffffffffffffffffffffffffff1660808173ffffffffffffffffffffffffffffffffffffffff168152505050610344565b5f5f5f9054906101000a900473ffffffffffffffffffffffffffffffffffffffff169050815f5f6101000a81548173ffffffffffffffffffffffffffffffffffffffff021916908373ffffffffffffffffffffffffffffffffffffffff1602179055508173ffffffffffffffffffffffffffffffffffffffff168173ffffffffffffffffffffffffffffffffffffffff167f8be0079c531659141344cd1fd0a4f28419497f9722a3daafe3b4186f6b6457e060405160405180910390a35050565b5f5ffd5b5f73ffffffffffffffffffffffffffffffffffffffff82169050919050565b5f6102488261021f565b9050919050565b6102588161023e565b8114610262575f5ffd5b50565b5f815190506102738161024f565b92915050565b5f6020828403121561028e5761028d61021b565b5b5f61029b84828501610265565b91505092915050565b6102ad8161023e565b82525050565b5f6020820190506102c65f8301846102a4565b92915050565b5f82825260208201905092915050565b7f496e76616c696420746f6b656e206164647265737300000000000000000000005f82015250565b5f6103106015836102cc565b915061031b826102dc565b602082019050919050565b5f6020820190508181035f83015261033d81610304565b9050919050565b6080516114e76103715f395f8181610314015281816106fe01528181610a250152610bb301526114e75ff3fe608060405234801561000f575f5ffd5b5060043610610091575f3560e01c806381b3b29f1161006457806381b3b29f146101205780638da5cb5b1461013c578063a416f5ab1461015a578063f2fde38b14610178578063fc0c546a1461019457610091565b806322af00fa14610095578063424af8ed146100ca5780636c0c27e1146100fa578063715018a614610116575b5f5ffd5b6100af60048036038101906100aa9190610d5b565b6101b2565b6040516100c196959493929190610dee565b60405180910390f35b6100e460048036038101906100df9190610e77565b610261565b6040516100f19190610eb5565b60405180910390f35b610114600480360381019061010f9190610d5b565b6105b5565b005b61011e6107f7565b005b61013a60048036038101906101359190610ece565b61080a565b005b610144610b00565b6040516101519190610f0c565b60405180910390f35b610162610b27565b60405161016f9190610eb5565b60405180910390f35b610192600480360381019061018d9190610f25565b610b2d565b005b61019c610bb1565b6040516101a99190610fab565b60405180910390f35b6002602052805f5260405f205f91509050805f015f9054906101000a900473ffffffffffffffffffffffffffffffffffffffff1690806001015f9054906101000a900473ffffffffffffffffffffffffffffffffffffffff1690806002015490806003015f9054906101000a900460ff16908060030160019054906101000a900460ff16908060030160029054906101000a900473ffffffffffffffffffffffffffffffffffffffff16905086565b5f3373ffffffffffffffffffffffffffffffffffffffff168373ffffffffffffffffffffffffffffffffffffffff16036102d0576040517f08c379a00000000000000000000000000000000000000000000000000000000081526004016102c79061101e565b60405180910390fd5b5f8211610312576040517f08c379a000000000000000000000000000000000000000000000000000000000815260040161030990611086565b60405180910390fd5b7f000000000000000000000000000000000000000000000000000000000000000073ffffffffffffffffffffffffffffffffffffffff166323b872dd3330856040518463ffffffff1660e01b815260040161036f939291906110a4565b6020604051808303815f875af115801561038b573d5f5f3e3d5ffd5b505050506040513d601f19601f820116820180604052508101906103af9190611103565b5060015f8154809291906103c29061115b565b91905055506040518060c001604052803373ffffffffffffffffffffffffffffffffffffffff1681526020018473ffffffffffffffffffffffffffffffffffffffff1681526020018381526020015f151581526020016001151581526020015f73ffffffffffffffffffffffffffffffffffffffff1681525060025f60015481526020019081526020015f205f820151815f015f6101000a81548173ffffffffffffffffffffffffffffffffffffffff021916908373ffffffffffffffffffffffffffffffffffffffff1602179055506020820151816001015f6101000a81548173ffffffffffffffffffffffffffffffffffffffff021916908373ffffffffffffffffffffffffffffffffffffffff160217905550604082015181600201556060820151816003015f6101000a81548160ff02191690831515021790555060808201518160030160016101000a81548160ff02191690831515021790555060a08201518160030160026101000a81548173ffffffffffffffffffffffffffffffffffffffff021916908373ffffffffffffffffffffffffffffffffffffffff1602179055509050507f22e97c60d2ab6afefcc5b56f229ddeecb15ebc99eaa54842afc75609955044216001543385856040516105a294939291906111a2565b60405180910390a1600154905092915050565b5f60025f8381526020019081526020015f2090508060030160019054906101000a900460ff1661061a576040517f08c379a00000000000000000000000000000000000000000000000000000000081526004016106119061122f565b60405180910390fd5b806003015f9054906101000a900460ff161561066b576040517f08c379a000000000000000000000000000000000000000000000000000000000815260040161066290611297565b60405180910390fd5b806001015f9054906101000a900473ffffffffffffffffffffffffffffffffffffffff1673ffffffffffffffffffffffffffffffffffffffff163373ffffffffffffffffffffffffffffffffffffffff16146106fc576040517f08c379a00000000000000000000000000000000000000000000000000000000081526004016106f3906112ff565b60405180910390fd5b7f000000000000000000000000000000000000000000000000000000000000000073ffffffffffffffffffffffffffffffffffffffff166323b872dd333084600201546040518463ffffffff1660e01b815260040161075d939291906110a4565b6020604051808303815f875af1158015610779573d5f5f3e3d5ffd5b505050506040513d601f19601f8201168201806040525081019061079d9190611103565b506001816003015f6101000a81548160ff0219169083151502179055507fb727a22534e43d337addefe6245e691859b29f7bf356bc7e6d77ff92070fe12482336040516107eb92919061131d565b60405180910390a15050565b6107ff610bd5565b6108085f610c5c565b565b610812610bd5565b5f60025f8481526020019081526020015f2090508060030160019054906101000a900460ff16610877576040517f08c379a000000000000000000000000000000000000000000000000000000000815260040161086e9061122f565b60405180910390fd5b806003015f9054906101000a900460ff166108c7576040517f08c379a00000000000000000000000000000000000000000000000000000000081526004016108be9061138e565b60405180910390fd5b805f015f9054906101000a900473ffffffffffffffffffffffffffffffffffffffff1673ffffffffffffffffffffffffffffffffffffffff168273ffffffffffffffffffffffffffffffffffffffff1614806109715750806001015f9054906101000a900473ffffffffffffffffffffffffffffffffffffffff1673ffffffffffffffffffffffffffffffffffffffff168273ffffffffffffffffffffffffffffffffffffffff16145b6109b0576040517f08c379a00000000000000000000000000000000000000000000000000000000081526004016109a7906113f6565b60405180910390fd5b5f600282600201546109c29190611414565b90505f8260030160016101000a81548160ff021916908315150217905550828260030160026101000a81548173ffffffffffffffffffffffffffffffffffffffff021916908373ffffffffffffffffffffffffffffffffffffffff1602179055507f000000000000000000000000000000000000000000000000000000000000000073ffffffffffffffffffffffffffffffffffffffff1663a9059cbb84836040518363ffffffff1660e01b8152600401610a7e929190611455565b6020604051808303815f875af1158015610a9a573d5f5f3e3d5ffd5b505050506040513d601f19601f82011682018060405250810190610abe9190611103565b507f96a2bff66387be9e7910e4a9ddf9ba9d0b23439aa8c0790b867617d60a889143848483604051610af29392919061147c565b60405180910390a150505050565b5f5f5f9054906101000a900473ffffffffffffffffffffffffffffffffffffffff16905090565b60015481565b610b35610bd5565b5f73ffffffffffffffffffffffffffffffffffffffff168173ffffffffffffffffffffffffffffffffffffffff1603610ba5575f6040517f1e4fbdf7000000000000000000000000000000000000000000000000000000008152600401610b9c9190610f0c565b60405180910390fd5b610bae81610c5c565b50565b7f000000000000000000000000000000000000000000000000000000000000000081565b610bdd610d1d565b73ffffffffffffffffffffffffffffffffffffffff16610bfb610b00565b73ffffffffffffffffffffffffffffffffffffffff1614610c5a57610c1e610d1d565b6040517f118cdaa7000000000000000000000000000000000000000000000000000000008152600401610c519190610f0c565b60405180910390fd5b565b5f5f5f9054906101000a900473ffffffffffffffffffffffffffffffffffffffff169050815f5f6101000a81548173ffffffffffffffffffffffffffffffffffffffff021916908373ffffffffffffffffffffffffffffffffffffffff1602179055508173ffffffffffffffffffffffffffffffffffffffff168173ffffffffffffffffffffffffffffffffffffffff167f8be0079c531659141344cd1fd0a4f28419497f9722a3daafe3b4186f6b6457e060405160405180910390a35050565b5f33905090565b5f5ffd5b5f819050919050565b610d3a81610d28565b8114610d44575f5ffd5b50565b5f81359050610d5581610d31565b92915050565b5f60208284031215610d7057610d6f610d24565b5b5f610d7d84828501610d47565b91505092915050565b5f73ffffffffffffffffffffffffffffffffffffffff82169050919050565b5f610daf82610d86565b9050919050565b610dbf81610da5565b82525050565b610dce81610d28565b82525050565b5f8115159050919050565b610de881610dd4565b82525050565b5f60c082019050610e015f830189610db6565b610e0e6020830188610db6565b610e1b6040830187610dc5565b610e286060830186610ddf565b610e356080830185610ddf565b610e4260a0830184610db6565b979650505050505050565b610e5681610da5565b8114610e60575f5ffd5b50565b5f81359050610e7181610e4d565b92915050565b5f5f60408385031215610e8d57610e8c610d24565b5b5f610e9a85828601610e63565b9250506020610eab85828601610d47565b9150509250929050565b5f602082019050610ec85f830184610dc5565b92915050565b5f5f60408385031215610ee457610ee3610d24565b5b5f610ef185828601610d47565b9250506020610f0285828601610e63565b9150509250929050565b5f602082019050610f1f5f830184610db6565b92915050565b5f60208284031215610f3a57610f39610d24565b5b5f610f4784828501610e63565b91505092915050565b5f819050919050565b5f610f73610f6e610f6984610d86565b610f50565b610d86565b9050919050565b5f610f8482610f59565b9050919050565b5f610f9582610f7a565b9050919050565b610fa581610f8b565b82525050565b5f602082019050610fbe5f830184610f9c565b92915050565b5f82825260208201905092915050565b7f43616e6e6f742062657420796f757273656c66000000000000000000000000005f82015250565b5f611008601383610fc4565b915061101382610fd4565b602082019050919050565b5f6020820190508181035f83015261103581610ffc565b9050919050565b7f416d6f756e74206d757374206265203e203000000000000000000000000000005f82015250565b5f611070601283610fc4565b915061107b8261103c565b602082019050919050565b5f6020820190508181035f83015261109d81611064565b9050919050565b5f6060820190506110b75f830186610db6565b6110c46020830185610db6565b6110d16040830184610dc5565b949350505050565b6110e281610dd4565b81146110ec575f5ffd5b50565b5f815190506110fd816110d9565b92915050565b5f6020828403121561111857611117610d24565b5b5f611125848285016110ef565b91505092915050565b7f4e487b71000000000000000000000000000000000000000000000000000000005f52601160045260245ffd5b5f61116582610d28565b91507fffffffffffffffffffffffffffffffffffffffffffffffffffffffffffffffff82036111975761119661112e565b5b600182019050919050565b5f6080820190506111b55f830187610dc5565b6111c26020830186610db6565b6111cf6040830185610db6565b6111dc6060830184610dc5565b95945050505050565b7f426574206e6f74206163746976650000000000000000000000000000000000005f82015250565b5f611219600e83610fc4565b9150611224826111e5565b602082019050919050565b5f6020820190508181035f8301526112468161120d565b9050919050565b7f416c7265616479206163636570746564000000000000000000000000000000005f82015250565b5f611281601083610fc4565b915061128c8261124d565b602082019050919050565b5f6020820190508181035f8301526112ae81611275565b9050919050565b7f4f6e6c7920696e7669746564206f70706f6e656e7400000000000000000000005f82015250565b5f6112e9601583610fc4565b91506112f4826112b5565b602082019050919050565b5f6020820190508181035f830152611316816112dd565b9050919050565b5f6040820190506113305f830185610dc5565b61133d6020830184610db6565b9392505050565b7f426574206e6f74206163636570746564000000000000000000000000000000005f82015250565b5f611378601083610fc4565b915061138382611344565b602082019050919050565b5f6020820190508181035f8301526113a58161136c565b9050919050565b7f57696e6e6572206d7573742062652061207061727469636970616e74000000005f82015250565b5f6113e0601c83610fc4565b91506113eb826113ac565b602082019050919050565b5f6020820190508181035f83015261140d816113d4565b9050919050565b5f61141e82610d28565b915061142983610d28565b925082820261143781610d28565b9150828204841483151761144e5761144d61112e565b5b5092915050565b5f6040820190506114685f830185610db6565b6114756020830184610dc5565b9392505050565b5f60608201905061148f5f830186610dc5565b61149c6020830185610db6565b6114a96040830184610dc5565b94935050505056fea264697066735822122044b196c721512f3a8fc5459c141179412f23cefd86b91c05941880890c0f1df364736f6c634300081e0033","linkReferences":{}},"methodIdentifiers":{"acceptBet(uint256)":"6c0c27e1","betCounter()":"a416f5ab","bets(uint256)":"22af00fa","createBet(address,uint256)":"424af8ed","owner()":"8da5cb5b","renounceOwnership()":"715018a6","resolveBet(uint256,address)":"81b3b29f","token()":"fc0c546a","transferOwnership(address)":"f2fde38b"},"id":6}