{"abi":[{"type":"constructor","inputs":[{"name":"initialSupply","type":"uint256","internalType":"uint256"}],"stateMutability":"nonpayable"},{"type":"function","name":"BURN_TAX","inputs":[],"outputs":[{"name":"","type":"uint256","internalType":"uint256"}],"stateMutability":"view"},{"type":"function","name":"allowance","inputs":[{"name":"owner","type":"address","internalType":"address"},{"name":"spender","type":"address","internalType":"address"}],"outputs":[{"name":"","type":"uint256","internalType":"uint256"}],"stateMutability":"view"},{"type":"function","name":"approve","inputs":[{"name":"spender","type":"address","internalType":"address"},{"name":"value","type":"uint256","internalType":"uint256"}],"outputs":[{"name":"","type":"bool","internalType":"bool"}],"stateMutability":"nonpayable"},{"type":"function","name":"balanceOf","inputs":[{"name":"account","type":"address","internalType":"address"}],"outputs":[{"name":"","type":"uint256","internalType":"uint256"}],"stateMutability":"view"},{"type":"function","name":"decimals","inputs":[],"outputs":[{"name":"","type":"uint8","internalType":"uint8"}],"stateMutability":"view"},{"type":"function","name":"name","inputs":[],"outputs":[{"name":"","type":"string","internalType":"string"}],"stateMutability":"view"},{"type":"function","name":"owner","inputs":[],"outputs":[{"name":"","type":"address","internalType":"address"}],"stateMutability":"view"},{"type":"function","name":"ownerMint","inputs":[{"name":"to","type":"address","internalType":"address"},{"name":"amount","type":"uint256","internalType":"uint256"}],"outputs":[],"stateMutability":"nonpayable"},{"type":"function","name":"renounceOwnership","inputs":[],"outputs":[],"stateMutability":"nonpayable"},{"type":"function","name":"symbol","inputs":[],"outputs":[{"name":"","type":"string","internalType":"string"}],"stateMutability":"view"},{"type":"function","name":"totalSupply","inputs":[],"outputs":[{"name":"","type":"uint256","internalType":"uint256"}],"stateMutability":"view"},{"type":"function","name":"transfer","inputs":[{"name":"to","type":"address","internalType":"address"},{"name":"value","type":"uint256","internalType":"uint256"}],"outputs":[{"name":"","type":"bool","internalType":"bool"}],"stateMutability":"nonpayable"},{"type":"function","name":"transferFrom","inputs":[{"name":"from","type":"address","internalType":"address"},{"name":"to","type":"address","internalType":"address"},{"name":"value","type":"uint256","internalType":"uint256"}],"outputs":[{"name":"","type":"bool","internalType":"bool"}],"stateMutability":"nonpayable"},{"type":"function","name":"transferOwnership","inputs":[{"name":"newOwner","type":"address","internalType":"address"}],"outputs":[],"stateMutability":"nonpayable"},{"type":"event","name":"Approval","inputs":[{"name":"owner","type":"address","indexed":true,"internalType":"address"},{"name":"spender","type":"address","indexed":true,"internalType":"address"},{"name":"value","type":"uint256","indexed":false,"internalType":"uint256"}],"anonymous":false},{"type":"event","name":"OwnershipTransferred","inputs":[{"name":"previousOwner","type":"address","indexed":true,"internalType":"address"},{"name":"newOwner","type":"address","indexed":true,"internalType":"address"}],"anonymous":false},{"type":"event","name":"Transfer","inputs":[{"name":"from","type":"address","indexed":true,"internalType":"address"},{"name":"to","type":"address","indexed":true,"internalType":"address"},{"name":"value","type":"uint256","indexed":false,"internalType":"uint256"}],"anonymous":false},{"type":"error","name":"ERC20InsufficientAllowance","inputs":[{"name":"spender","type":"address","internalType":"address"},{"name":"allowance","type":"uint256","internalType":"uint256"},{"name":"needed","type":"uint256","internalType":"uint256"}]},{"type":"error","name":"ERC20InsufficientBalance","inputs":[{"name":"sender","type":"address","internalType":"address"},{"name":"balance","type":"uint256","internalType":"uint256"},{"name":"needed","type":"uint256","internalType":"uint256"}]},{"type":"error","name":"ERC20InvalidApprover","inputs":[{"name":"approver","type":"address","internalType":"address"}]},{"type":"error","name":"ERC20InvalidReceiver","inputs":[{"name":"receiver","type":"address","internalType":"address"}]},{"type":"error","name":"ERC20InvalidSender","inputs":[{"name":"sender","type":"address","internalType":"address"}]},{"type":"error","name":"ERC20InvalidSpender","inputs":[{"name":"spender","type":"address","internalType":"address"}]},{"type":"error","name":"OwnableInvalidOwner","inputs":[{"name":"owner","type":"address","internalType":"address"}]},{"type":"error","name":"OwnableUnauthorizedAccount","inputs":[{"name":"account","type":"address","internalType":"address"}]}],"bytecode":{"object":"0x608060405234801561000f575f5ffd5b50604051611a98380380611a98833981810160405281019061003191906104ee565b336040518060400160405280600d81526020017f4f6c6e657946616e73436f696e000000000000000000000000000000000000008152506040518060400160405280600381526020017f4f4643000000000000000000000000000000000000000000000000000000000081525081600390816100ad919061074d565b5080600490816100bd919061074d565b5050505f73ffffffffffffffffffffffffffffffffffffffff168173ffffffffffffffffffffffffffffffffffffffff1603610130575f6040517f1e4fbdf7000000000000000000000000000000000000000000000000000000008152600401610127919061085b565b60405180910390fd5b61013f8161015660201b60201c565b50610150338261021960201b60201c565b50610931565b5f60055f9054906101000a900473ffffffffffffffffffffffffffffffffffffffff1690508160055f6101000a81548173ffffffffffffffffffffffffffffffffffffffff021916908373ffffffffffffffffffffffffffffffffffffffff1602179055508173ffffffffffffffffffffffffffffffffffffffff168173ffffffffffffffffffffffffffffffffffffffff167f8be0079c531659141344cd1fd0a4f28419497f9722a3daafe3b4186f6b6457e060405160405180910390a35050565b5f73ffffffffffffffffffffffffffffffffffffffff168273ffffffffffffffffffffffffffffffffffffffff1603610289575f6040517fec442f05000000000000000000000000000000000000000000000000000000008152600401610280919061085b565b60405180910390fd5b61029a5f838361029e60201b60201c565b5050565b5f73ffffffffffffffffffffffffffffffffffffffff168373ffffffffffffffffffffffffffffffffffffffff16036102ee578060025f8282546102e291906108a1565b925050819055506103bc565b5f5f5f8573ffffffffffffffffffffffffffffffffffffffff1673ffffffffffffffffffffffffffffffffffffffff1681526020019081526020015f2054905081811015610377578381836040517fe450d38c00000000000000000000000000000000000000000000000000000000815260040161036e939291906108e3565b60405180910390fd5b8181035f5f8673ffffffffffffffffffffffffffffffffffffffff1673ffffffffffffffffffffffffffffffffffffffff1681526020019081526020015f2081905550505b5f73ffffffffffffffffffffffffffffffffffffffff168273ffffffffffffffffffffffffffffffffffffffff1603610403578060025f828254039250508190555061044d565b805f5f8473ffffffffffffffffffffffffffffffffffffffff1673ffffffffffffffffffffffffffffffffffffffff1681526020019081526020015f205f82825401925050819055505b8173ffffffffffffffffffffffffffffffffffffffff168373ffffffffffffffffffffffffffffffffffffffff167fddf252ad1be2c89b69c2b068fc378daa952ba7f163c4a11628f55a4df523b3ef836040516104aa9190610918565b60405180910390a3505050565b5f5ffd5b5f819050919050565b6104cd816104bb565b81146104d7575f5ffd5b50565b5f815190506104e8816104c4565b92915050565b5f60208284031215610503576105026104b7565b5b5f610510848285016104da565b91505092915050565b5f81519050919050565b7f4e487b71000000000000000000000000000000000000000000000000000000005f52604160045260245ffd5b7f4e487b71000000000000000000000000000000000000000000000000000000005f52602260045260245ffd5b5f600282049050600182168061059457607f821691505b6020821081036105a7576105a6610550565b5b50919050565b5f819050815f5260205f209050919050565b5f6020601f8301049050919050565b5f82821b905092915050565b5f600883026106097fffffffffffffffffffffffffffffffffffffffffffffffffffffffffffffffff826105ce565b61061386836105ce565b95508019841693508086168417925050509392505050565b5f819050919050565b5f61064e610649610644846104bb565b61062b565b6104bb565b9050919050565b5f819050919050565b61066783610634565b61067b61067382610655565b8484546105da565b825550505050565b5f5f905090565b610692610683565b61069d81848461065e565b505050565b5b818110156106c0576106b55f8261068a565b6001810190506106a3565b5050565b601f821115610705576106d6816105ad565b6106df846105bf565b810160208510156106ee578190505b6107026106fa856105bf565b8301826106a2565b50505b505050565b5f82821c905092915050565b5f6107255f198460080261070a565b1980831691505092915050565b5f61073d8383610716565b9150826002028217905092915050565b61075682610519565b67ffffffffffffffff81111561076f5761076e610523565b5b610779825461057d565b6107848282856106c4565b5f60209050601f8311600181146107b5575f84156107a3578287015190505b6107ad8582610732565b865550610814565b601f1984166107c3866105ad565b5f5b828110156107ea578489015182556001820191506020850194506020810190506107c5565b868310156108075784890151610803601f891682610716565b8355505b6001600288020188555050505b505050505050565b5f73ffffffffffffffffffffffffffffffffffffffff82169050919050565b5f6108458261081c565b9050919050565b6108558161083b565b82525050565b5f60208201905061086e5f83018461084c565b92915050565b7f4e487b71000000000000000000000000000000000000000000000000000000005f52601160045260245ffd5b5f6108ab826104bb565b91506108b6836104bb565b92508282019050808211156108ce576108cd610874565b5b92915050565b6108dd816104bb565b82525050565b5f6060820190506108f65f83018661084c565b61090360208301856108d4565b61091060408301846108d4565b949350505050565b5f60208201905061092b5f8301846108d4565b92915050565b61115a8061093e5f395ff3fe608060405234801561000f575f5ffd5b50600436106100e8575f3560e01c806370a082311161008a57806395d89b411161006457806395d89b4114610238578063a9059cbb14610256578063dd62ed3e14610286578063f2fde38b146102b6576100e8565b806370a08231146101e0578063715018a6146102105780638da5cb5b1461021a576100e8565b806323b872dd116100c657806323b872dd14610158578063313ce56714610188578063484b973c146101a65780635fff9b5c146101c2576100e8565b806306fdde03146100ec578063095ea7b31461010a57806318160ddd1461013a575b5f5ffd5b6100f46102d2565b6040516101019190610dd3565b60405180910390f35b610124600480360381019061011f9190610e84565b610362565b6040516101319190610edc565b60405180910390f35b610142610384565b60405161014f9190610f04565b60405180910390f35b610172600480360381019061016d9190610f1d565b61038d565b60405161017f9190610edc565b60405180910390f35b6101906103bb565b60405161019d9190610f88565b60405180910390f35b6101c060048036038101906101bb9190610e84565b6103c3565b005b6101ca6103d9565b6040516101d79190610f04565b60405180910390f35b6101fa60048036038101906101f59190610fa1565b6103de565b6040516102079190610f04565b60405180910390f35b610218610423565b005b610222610436565b60405161022f9190610fdb565b60405180910390f35b61024061045e565b60405161024d9190610dd3565b60405180910390f35b610270600480360381019061026b9190610e84565b6104ee565b60405161027d9190610edc565b60405180910390f35b6102a0600480360381019061029b9190610ff4565b610510565b6040516102ad9190610f04565b60405180910390f35b6102d060048036038101906102cb9190610fa1565b610592565b005b6060600380546102e19061105f565b80601f016020809104026020016040519081016040528092919081815260200182805461030d9061105f565b80156103585780601f1061032f57610100808354040283529160200191610358565b820191905f5260205f20905b81548152906001019060200180831161033b57829003601f168201915b5050505050905090565b5f5f61036c610616565b905061037981858561061d565b600191505092915050565b5f600254905090565b5f5f610397610616565b90506103a485828561062f565b6103af8585856106c2565b60019150509392505050565b5f6012905090565b6103cb6107b2565b6103d58282610839565b5050565b600181565b5f5f5f8373ffffffffffffffffffffffffffffffffffffffff1673ffffffffffffffffffffffffffffffffffffffff1681526020019081526020015f20549050919050565b61042b6107b2565b6104345f6108b8565b565b5f60055f9054906101000a900473ffffffffffffffffffffffffffffffffffffffff16905090565b60606004805461046d9061105f565b80601f01602080910402602001604051908101604052809291908181526020018280546104999061105f565b80156104e45780601f106104bb576101008083540402835291602001916104e4565b820191905f5260205f20905b8154815290600101906020018083116104c757829003601f168201915b5050505050905090565b5f5f6104f8610616565b90506105058185856106c2565b600191505092915050565b5f60015f8473ffffffffffffffffffffffffffffffffffffffff1673ffffffffffffffffffffffffffffffffffffffff1681526020019081526020015f205f8373ffffffffffffffffffffffffffffffffffffffff1673ffffffffffffffffffffffffffffffffffffffff1681526020019081526020015f2054905092915050565b61059a6107b2565b5f73ffffffffffffffffffffffffffffffffffffffff168173ffffffffffffffffffffffffffffffffffffffff160361060a575f6040517f1e4fbdf70000000000000000000000000000000000000000000000000000000081526004016106019190610fdb565b60405180910390fd5b610613816108b8565b50565b5f33905090565b61062a838383600161097b565b505050565b5f61063a8484610510565b90507fffffffffffffffffffffffffffffffffffffffffffffffffffffffffffffffff8110156106bc57818110156106ad578281836040517ffb8f41b20000000000000000000000000000000000000000000000000000000081526004016106a49392919061108f565b60405180910390fd5b6106bb84848484035f61097b565b5b50505050565b5f73ffffffffffffffffffffffffffffffffffffffff168373ffffffffffffffffffffffffffffffffffffffff1603610732575f6040517f96c6fd1e0000000000000000000000000000000000000000000000000000000081526004016107299190610fdb565b60405180910390fd5b5f73ffffffffffffffffffffffffffffffffffffffff168273ffffffffffffffffffffffffffffffffffffffff16036107a2575f6040517fec442f050000000000000000000000000000000000000000000000000000000081526004016107999190610fdb565b60405180910390fd5b6107ad838383610b4a565b505050565b6107ba610616565b73ffffffffffffffffffffffffffffffffffffffff166107d8610436565b73ffffffffffffffffffffffffffffffffffffffff1614610837576107fb610616565b6040517f118cdaa700000000000000000000000000000000000000000000000000000000815260040161082e9190610fdb565b60405180910390fd5b565b5f73ffffffffffffffffffffffffffffffffffffffff168273ffffffffffffffffffffffffffffffffffffffff16036108a9575f6040517fec442f050000000000000000000000000000000000000000000000000000000081526004016108a09190610fdb565b60405180910390fd5b6108b45f8383610b4a565b5050565b5f60055f9054906101000a900473ffffffffffffffffffffffffffffffffffffffff1690508160055f6101000a81548173ffffffffffffffffffffffffffffffffffffffff021916908373ffffffffffffffffffffffffffffffffffffffff1602179055508173ffffffffffffffffffffffffffffffffffffffff168173ffffffffffffffffffffffffffffffffffffffff167f8be0079c531659141344cd1fd0a4f28419497f9722a3daafe3b4186f6b6457e060405160405180910390a35050565b5f73ffffffffffffffffffffffffffffffffffffffff168473ffffffffffffffffffffffffffffffffffffffff16036109eb575f6040517fe602df050000000000000000000000000000000000000000000000000000000081526004016109e29190610fdb565b60405180910390fd5b5f73ffffffffffffffffffffffffffffffffffffffff168373ffffffffffffffffffffffffffffffffffffffff1603610a5b575f6040517f94280d62000000000000000000000000000000000000000000000000000000008152600401610a529190610fdb565b60405180910390fd5b8160015f8673ffffffffffffffffffffffffffffffffffffffff1673ffffffffffffffffffffffffffffffffffffffff1681526020019081526020015f205f8573ffffffffffffffffffffffffffffffffffffffff1673ffffffffffffffffffffffffffffffffffffffff1681526020019081526020015f20819055508015610b44578273ffffffffffffffffffffffffffffffffffffffff168473ffffffffffffffffffffffffffffffffffffffff167f8c5be1e5ebec7d5bd14f71427d1e84f3dd0314c0f7b2291e5b200ac8c7c3b92584604051610b3b9190610f04565b60405180910390a35b50505050565b5f73ffffffffffffffffffffffffffffffffffffffff168373ffffffffffffffffffffffffffffffffffffffff1603610b9a578060025f828254610b8e91906110f1565b92505081905550610c68565b5f5f5f8573ffffffffffffffffffffffffffffffffffffffff1673ffffffffffffffffffffffffffffffffffffffff1681526020019081526020015f2054905081811015610c23578381836040517fe450d38c000000000000000000000000000000000000000000000000000000008152600401610c1a9392919061108f565b60405180910390fd5b8181035f5f8673ffffffffffffffffffffffffffffffffffffffff1673ffffffffffffffffffffffffffffffffffffffff1681526020019081526020015f2081905550505b5f73ffffffffffffffffffffffffffffffffffffffff168273ffffffffffffffffffffffffffffffffffffffff1603610caf578060025f8282540392505081905550610cf9565b805f5f8473ffffffffffffffffffffffffffffffffffffffff1673ffffffffffffffffffffffffffffffffffffffff1681526020019081526020015f205f82825401925050819055505b8173ffffffffffffffffffffffffffffffffffffffff168373ffffffffffffffffffffffffffffffffffffffff167fddf252ad1be2c89b69c2b068fc378daa952ba7f163c4a11628f55a4df523b3ef83604051610d569190610f04565b60405180910390a3505050565b5f81519050919050565b5f82825260208201905092915050565b8281835e5f83830152505050565b5f601f19601f8301169050919050565b5f610da582610d63565b610daf8185610d6d565b9350610dbf818560208601610d7d565b610dc881610d8b565b840191505092915050565b5f6020820190508181035f830152610deb8184610d9b565b905092915050565b5f5ffd5b5f73ffffffffffffffffffffffffffffffffffffffff82169050919050565b5f610e2082610df7565b9050919050565b610e3081610e16565b8114610e3a575f5ffd5b50565b5f81359050610e4b81610e27565b92915050565b5f819050919050565b610e6381610e51565b8114610e6d575f5ffd5b50565b5f81359050610e7e81610e5a565b92915050565b5f5f60408385031215610e9a57610e99610df3565b5b5f610ea785828601610e3d565b9250506020610eb885828601610e70565b9150509250929050565b5f8115159050919050565b610ed681610ec2565b82525050565b5f602082019050610eef5f830184610ecd565b92915050565b610efe81610e51565b82525050565b5f602082019050610f175f830184610ef5565b92915050565b5f5f5f60608486031215610f3457610f33610df3565b5b5f610f4186828701610e3d565b9350506020610f5286828701610e3d565b9250506040610f6386828701610e70565b9150509250925092565b5f60ff82169050919050565b610f8281610f6d565b82525050565b5f602082019050610f9b5f830184610f79565b92915050565b5f60208284031215610fb657610fb5610df3565b5b5f610fc384828501610e3d565b91505092915050565b610fd581610e16565b82525050565b5f602082019050610fee5f830184610fcc565b92915050565b5f5f6040838503121561100a57611009610df3565b5b5f61101785828601610e3d565b925050602061102885828601610e3d565b9150509250929050565b7f4e487b71000000000000000000000000000000000000000000000000000000005f52602260045260245ffd5b5f600282049050600182168061107657607f821691505b60208210810361108957611088611032565b5b50919050565b5f6060820190506110a25f830186610fcc565b6110af6020830185610ef5565b6110bc6040830184610ef5565b949350505050565b7f4e487b71000000000000000000000000000000000000000000000000000000005f52601160045260245ffd5b5f6110fb82610e51565b915061110683610e51565b925082820190508082111561111e5761111d6110c4565b5b9291505056fea26469706673582212203505d26394550cb26934399a22ddeb743288a3543a5ce45e249aa8d44cb2371f64736f6c634300081e0033","linkReferences":{}},"methodIdentifiers":{"BURN_TAX()":"5fff9b5c","allowance(address,address)":"dd62ed3e","approve(address,uint256)":"095ea7b3","balanceOf(address)":"70a08231","decimals()":"313ce567","name()":"06fdde03","owner()":"8da5cb5b","ownerMint(address,uint256)":"484b973c","renounceOwnership()":"715018a6","symbol()":"95d89b41","totalSupply()":"18160ddd","transfer(address,uint256)":"a9059cbb","transferFrom(address,address,uint256)":"23b872dd","transferOwnership(address)":"f2fde38b"},"id":7}